:0400000051EF00F0CC
:0C000800FACF31F0FBCF32F0A2EF02F093
:10001800D8CF01F0E8CF02F0E0CF03F0FACF04F038
:10002800FBCF05F0E9CF06F0EACF07F0E1CF08F003
:10003800E2CF09F0D9CF0AF0DACF0BF0F3CF0CF00A
:10004800F4CF0DF0F6CF0EF0F7CF0FF0F8CF10F099
:10005800F5CF11F011C0F5FF10C0F8FF0FC0F7FF82
:100068000EC0F6FF0DC0F4FF0CC0F3FF0BC0DAFFA3
:100078000AC0D9FF09C0E2FF08C0E1FF07C0EAFFD4
:1000880006C0E9FF05C0FBFF04C0FAFF03C0E0FF9C
:1000980002C0E8FF01C0D8FF10002BEF0AF0000EE5
:1000A800000100017C6F000E00017D6F000E000151
:1000B8007E6F000E00017F6F000E00010001806F4F
:1000C800000E0001816F000E0001826F000E00011A
:1000D800836F000100017451060A7511D8A45CD120
:1000E800000E000100017B6F000E00017A6F000115
:1000F80020EE02F000017251D92600017351DA2274
:10010800DF50000100017B27000120EE03F0000111
:100118007251D92600017351DA22DF500001766F3F
:1001280000017651000100017A27000E00017B23AF
:1001380000010001E029D8B4E129D8B4E229D8B4F3
:10014800E329D8B4E4D000017AC076F000017BC07E
:1001580077F0000E000177BFFF0E786F796F00010E
:100168000001E05100017625000100017C6F0001CB
:100178000001E1510001772100017D6F00010001BC
:10018800E2510001782100017E6F00010001E35176
:100198000001792100017F6F00017CC076F0000129
:1001A8007DC077F000017EC078F000017FC079F053
:1001B8000001D890793378337733763379C07FF07C
:1001C80078C07EF077C07DF076C07CF07CC060F0AF
:1001D8007DC061F07EC062F07FC063F07CC064F0D7
:1001E8007DC065F07EC066F07FC067F071EC07F0F7
:1001F80063C083F062C082F061C081F060C080F0AB
:1002080080C060F081C061F082C062F083C063F09A
:1002180000010001D8C064F000010001D9C065F0F8
:100228000001000E000165BFFF0E0001666F0001AE
:10023800676F5FEC04F063C083F062C082F061C056
:1002480081F060C080F080C060F081C061F082C041
:1002580062F083C063F03A0E00010001646F010E82
:100268000001656F000E0001666F000E0001676FE8
:1002780071EC07F063C083F062C082F061C081F066
:1002880060C080F080C060F081C061F082C062F020
:1002980083C063F0640E00010001646F000E00016A
:1002A800656F000E0001666F000E0001676F5FEC5E
:1002B80004F063C083F062C082F061C081F060C066
:1002C80080F000010001805100010001D0270001E9
:1002D8000001815100010001D12300010001825178
:1002E80000010001D2230001000183510001000137
:1002F800D32300010001D44BD52BD0C068F0D1C066
:1003080069F0D2C06AF0D3C06BF07FEC09F000014D
:1003180000017AC0E0F0000100017BC0E1F00001BB
:10032800000E0001E1BFFF0E0001E26F0001E36F64
:1003380000010001D95100010001D51906E10001B1
:100348000001D85100010001D419D8A422D000011D
:100358000001E0690001E1690001E2690001E36967
:10036800000E00010001D06F000E0001D16F000ED9
:100378000001D26F000E0001D36FBDEC0AF0000E31
:1003880000010001616F000E0001606F3AEC0BF094
:100398001200C5EC09F012003AEC0BF01200000E46
:1003A8000F010F01386F000E0F010F01396F000E9A
:1003B8000F010F013A6F000E0F010F013B6F000E86
:1003C8000F010F013C6F0001000E00010001616F79
:1003D8000001900E0001606F1CEC0BF00001000E94
:1003E80000010001616F0001970E0001606FE0ECF1
:1003F80008F00001000E00010001616F0001B40E59
:100408000001606F46EC08F0929092929294929656
:100418009298929A929C929E89927EEC08F041EC76
:100428000BF05BEC09F0BFEC07F00001846F0A0EDB
:1004380000010001786F000184510001000E0001E5
:1004480000017A6F0001960E0001796F0001000E1D
:10045800000100017C6F0001850E00017B6FD3EC69
:100468000AF000010001B36F00010001B3BF38D0EA
:100478002ED00001000E00010001736F0001850EEF
:100488000001726F00010001B35100010001746F97
:100498000001756B000174BF750753EC00F020D0A4
:1004A8000001000E000100016B6F0001850E0001C4
:1004B8006A6F00010001B351000100016C6F000177
:1004C8006D6B00016CBF6D070BEC09F009D00001E2
:1004D80000019651320AD8B4E3D7010AD8B4C9D773
:1004E8000001846F0A0E00010001786F0001845139
:1004F8000001000E000100017A6F0001960E000154
:10050800796F0001000E000100017C6F0001850E6B
:1005180000017B6FA7EC0AF000010001B36F000136
:100528000001B3BF80D703D01FEC07F07CD70001D0
:10053800000196510A0AD8B4F7D775D7E9CF33F036
:10054800EACF34F0E1CF35F0E2CF36F0D9CF37F04B
:10055800DACF38F0F3CF39F0F4CF3AF0F6CF3BF0FA
:10056800F7CF3CF0F8CF3DF0F5CF3EF02F6E000E00
:10057800406E2F509DA801D001D009D09EA801D06F
:1005880001D005D08984CAEC06F0899456D09DAA7A
:1005980001D001D009D09EAA01D001D005D089860A
:1005A800FAEC0AF0899649D0A3A801D001D009D065
:1005B800A4A801D001D005D0898820EC06F089983C
:1005C8003CD0A3AA01D001D009D0A4AA01D001D05F
:1005D80005D0898AE4EC04F0899A2FD02F6E000E9A
:1005E8003F6E2F509EA001D001D005D02F6E010E76
:1005F8003F6E2F5000D09D503F18FE0B3F189D6E48
:100608009D50010B0009D8B401D001D016D0898CB7
:100618002F6E010E286E2F50306E0A0E296E305044
:10062800000E2B6E400E2A6EE9EC0AF09E90899C13
:1006380004D003D002D001D000D03EC0F5FF3DC0A9
:10064800F8FF3CC0F7FF3BC0F6FF3AC0F4FF39C0E3
:10065800F3FF38C0DAFF37C0D9FF36C0E2FF35C034
:10066800E1FF34C0EAFF33C0E9FF32C0FBFF31C00D
:10067800FAFF1100000120EE35F000016A51D92679
:1006880000016B51DA22DF5000010001736F000195
:10069800000173510D0DF350000100016A2500019E
:1006A8000001766FF450000100016B210001776FA3
:1006B800010E76C0D9FF77C0DAFFDF626FD0000184
:1006C80020EE01F000017651D92600017751DA2297
:1006D800DF50000100016C6102D0FD0E1200000124
:1006E80020EE01F000017651D92600017751DA2277
:1006F800DF500001716F0001715100010001746F3A
:100708000001756B6FC060F070C061F0030E0001EE
:10071800000176250001716F000E000100017721AC
:100728000001726F71C062F072C063F074C064F04F
:1007380075C065F034EC09F0000120EE35F00001D9
:100748006A51D92600016B51DA22000110EE35F00A
:1007580000016A51E12600016B51E222E7500001D5
:10076800716F00017129030BDF6E000120EE02F0AA
:1007780000017651D92600017751DA226DC0E1FFD8
:100788006EC0E2FFDFCFE7FF76C0D9FF77C0DAFFA0
:10079800000EDF6E0001000174511200FC0E120001
:1007A8000001646F000E00010001666F00016451D2
:1007B8000001000163AF0FD000010001626D00016C
:1007C800631FD8B0632B0001646F010E00010001A4
:1007D800666F000164510001000161AF0BD0000198
:1007E8000001606D0001611FD8B0612B010E00018E
:1007F8000001661B000E00010001686F000E000179
:10080800676F0001000163516211D8B443D0000141
:10081800646F010E00010001656F0001645109D089
:10082800000100010001D890623763370001000120
:10083800652B0001000163AFF3D70001000100013F
:10084800D890673768370001000162510001000144
:10085800605D000100016351000100016159D8A0E9
:100868000FD000010001625100010001605F00012A
:100878000001635100010001615B00010001678113
:10088800000100010001D8906333623300010001C8
:10089800652FD3D7000100016651D8B407D00001F5
:1008A8000001676D0001681FD8B0682B67C060F051
:1008B80068C061F01200000E00010001696F000EAF
:1008C80000016A6F000E00016B6F000E00016C6F73
:1008D800000100016751641165116611D8B467D031
:1008E8000001686F010E000100016D6F0001685181
:1008F8000DD00001D8900001643700016537000170
:10090800663700016737000100016D2B0001000107
:1009180067AFEFD70001D8900001693700016A3747
:1009280000016B3700016C370001000164510001C0
:100938000001605D0001000165510001000161597D
:100948000001000166510001000162590001000127
:100958006751000100016359D8A01BD000010001B4
:10096800645100010001605F000100016551000150
:100978000001615B00010001665100010001625B3A
:1009880000010001675100010001635B00010001E3
:1009980069810001D89000016733000166330001C6
:1009A800653300016433000100016D2FB3D769C0BE
:1009B80060F06AC061F06BC062F06CC063F0120056
:1009C800000120EE0AF00001DE51D9260001DF51B6
:1009D800DA22DECF2CF0DDCF2DF02C500001000103
:1009E800DE25D96E2D5000010001DF21DA6E74CFAB
:1009F800DFFF000120EE0AF00001DE51D9260001D8
:100A0800DF51DA22DE2A000EDD22000120EE0AF094
:100A18000001DE51D9260001DF51DA22000110EE73
:100A28000CF00001DE51E1260001DF51E222E6521E
:100A3800DE52DD50E518DFCFE8FFD8B4E718D8A4B8
:100A48001200A39A000120EE0AF00001DE51D92617
:100A58000001DF51DA22000EDE6E000EDD6E0001AD
:100A680020EE0CF00001DE51D9260001DF51DA2218
:100A7800DF50286E2C6E330E296E2C50DEC02AF003
:100A8800DFC02BF00BEC0BF0000120EE0CF00001A6
:100A9800DE51D9260001DF51DA22FF0EDE6EFF0E8D
:100AA800DD6E1200000120EE18F00001DC51D9269D
:100AB8000001DD51DA22DE50DD10D8A41200000159
:100AC80020EE1AF00001DC51D9260001DD51DA22AE
:100AD800000162C0DEFF000163C0DDFF000E0001FF
:100AE8000001676F000E0001666F2CD00001000145
:100AF8006651000100016025D96E000100016751AF
:100B0800000100016121DA6E0E0E00010001662568
:100B18000001646F000E0001000167210001656F8C
:100B28000001645100010001DC25E16E00016551FE
:100B380000010001DD21E26EDFCFE7FF00010001C7
:100B4800664B672B000100016751800A0001646F42
:100B58000001625100010001665D0001000163515E
:100B6800800A00016459D8A0C1D79D8812000001ED
:100B780020EE18F00001DE51D9260001DF51DA22FB
:100B8800DE50DD10D8A41200000120EE1AF000019A
:100B9800DE51D9260001DF51DA22000162C0DEFFF2
:100BA800000163C0DDFF000E00010001676F000E49
:100BB8000001666F2CD000010001665100010001A0
:100BC8006025D96E00010001675100010001612113
:100BD800DA6E0E0E0001000166250001646F000E3A
:100BE8000001000167210001656F000164510001E7
:100BF8000001DE25E16E0001655100010001DF21E1
:100C0800E26EDFCFE7FF00010001664B672B0001B2
:100C180000016751800A0001646F00016251000100
:100C28000001665D000100016351800A00016459FA
:100C3800D8A0C1D7A3881200000120EE18F0000147
:100C4800DE51D9260001DF51DA22000110EE1AF038
:100C58000001DE51E1260001DF51E222E652DE52B8
:100C6800DD50E518DFCFE8FFD8B4E718D8A40FD0D7
:100C7800A398000120EE18F00001DE51D9260001EA
:100C8800DF51DA22000EDE6E000EDD6E120000016A
:100C980020EE18F00001DE51D9260001DF51DA22DA
:100CA800DECF12F0DDCF13F00E0E1226000E132247
:100CB800125000010001DE25D96E13500001000119
:100CC800DF21DA6EDF50736E000120EE18F00001AC
:100CD800DE51D9260001DF51DA22DE2A000EDD229C
:100CE80012001EC023F0246A20EE34F01C50D926CE
:100CF8001D50DA22DF50256E25500D0DF3501C24AF
:100D0800266EF4501D20276E26C0D9FF27C0DAFFB3
:100D1800DF50D8B402D0FF0E120020EE01F02650AA
:100D2800D9262750DA221EC0DFFF20EE02F0265017
:100D3800D9262750DA221FC0DFFF030E2624126EA1
:100D4800000E2720136E20C014F021C015F023C018
:100D580016F024C017F06CEC0AF020EE34F01C50AA
:100D6800D9261D50DA2210EE34F01C50E1261D5011
:100D7800E222E750226E2228030BDF6E26C0D9FF3D
:100D880027C0DAFF010EDF6E010E1200000120EE0F
:100D980018F00001DC51D9260001DD51DA220001EA
:100DA80010EE1AF00001DC51E1260001DD51E222CB
:100DB800E652DE52DD50E518DFCFE8FFD8B4E71879
:100DC800D8A40FD09D98000120EE18F00001DC5146
:100DD800D9260001DD51DA22000EDE6E000EDD6E2E
:100DE8001200000120EE18F00001DC51D9260001A4
:100DF800DD51DA22DECF12F0DDCF13F00E0E12260F
:100E0800000E1322125000010001DC25D96E135088
:100E180000010001DD21DA6EDF50AD6E000120EE29
:100E280018F00001DC51D9260001DD51DA22DE2A52
:100E3800000EDD221200010E00010001D61B000188
:100E48000001D6671200DAC0D9FFDBC0DAFF000163
:100E580010EE02F00001DA51E1260001DB51E22236
:100E6800E652DE52DD50E518DFCFE8FFD8B4E718C8
:100E7800D8A425D0000120EE04F00001DA51D926CB
:100E88000001DB51DA22DE50DD10D8B416D00001A3
:100E980020EE04F00001DA51D9260001DB51DA22F4
:100EA80001D80AD00500FA6EDE50FD6EDE50FE6EE7
:100EB800F850FF6EFA501200CD9089901200897098
:100EC800000120EE02F00001DA51D9260001DB51C1
:100ED800DA22DE2A000EDD221200000E00010001D7
:100EE800686F000E0001696F000E00016A6F000E46
:100EF80000016B6F0001000160A118D00001000122
:100F080064510001000168270001000165510001DA
:100F180000016923000100016651000100016A23F4
:100F2800000100016751000100016B230001D89006
:100F38000001643700016537000166370001673733
:100F48000001D8900001633300016233000161336E
:100F580000016033000100016351601161116211E9
:100F6800D8A4C8D768C060F069C061F06AC062F0F0
:100F78006BC063F01200E7EC09F000010001655155
:100F880000016411D8B412000001666F010E00015F
:100F98000001D76F000166510101010E0001000137
:100FA800616F01016C0E0001606F8CEC0AF00009A2
:100FB800D8B409D00001666F000E00010001D76F98
:100FC8000001665112000101010E00010001616F6C
:100FD8000101A20E0001606F8CEC0AF00009D8B480
:100FE80009D00001666F000E00010001D76F0001F3
:100FF800665112000001666F0A0E00010001606F61
:101008000001665128EC0BF0C7D7000120EE34F040
:1010180000016051D92600016151DA22000EDF6E0D
:10102800000120EE35F000016051D9260001615120
:10103800DA22000EDF6E0001626F000E000100016F
:10104800636F00016251030E00010001636501D066
:1010580012000001000163510D0DF3500001000161
:101068006025D96EF450000100016121DA6E000E8E
:10107800DF6E00010001632B030E000100016365B0
:10108800E8D7120060C0DEF061C0DFF0958E959C55
:1010980070964D0E756E72847298718E729C719CEA
:1010A8007188728A000120EE0CF00001DE51D92609
:1010B8000001DF51DA22FF0EDE6EFF0EDD6E000149
:1010C80020EE0AF00001DE51D9260001DF51DA22B4
:1010D800000EDE6E000EDD6E000120EE18F000013D
:1010E800DE51D9260001DF51DA22000EDE6E000E35
:1010F800DD6E12000001646F000E00010001D76F61
:10110800000164510101010E00010001616F01013C
:10111800A20E0001606F09EC08F00101010E000148
:101128000001616F01016C0E0001606F09EC08F0AD
:101138000101010E00010001616F0101360E00017D
:10114800606F09EC08F00101010E00010001616FF8
:101158000101000E0001606F09EC08F012000001A7
:1011680020EE04F00001DA51D9260001DB51DA2221
:10117800000162C0DEFF000163C0DDFFDAC0D9FFF5
:10118800DBC0DAFF000160C0DEFF000161C0DDFFE7
:10119800000120EE02F00001DA51D9260001DB51EE
:1011A800DA22000EDE6E000EDD6E9E90000ECE6E10
:1011B800000ECF6ECD80120060C0DCF061C0DDF0A3
:1011C800949C948EB8964D0EAF6EAC84AC98AB8E52
:1011D800AC9CAB9CAB88AC8A000120EE0AF0000105
:1011E800DC51D9260001DD51DA22000EDE6E000E38
:1011F800DD6E000120EE18F00001DC51D926000157
:10120800DD51DA22000EDE6E000EDD6E12006AC0BD
:10121800D9FF6BC0DAFF1C0EDF6412006AC0D9FF69
:101228006BC0DAFFC80EDF6401D012006AC0D9FFB4
:101238006BC0DAFFDF5000016E6F00016E510001D4
:101248000001D86F0001D96B000E00010001D56FB5
:10125800000E0001D46F44EC0BF04CEC0AF01200C5
:1012680062C068F063C069F060C066F061C067F092
:1012780012D068C0D9FF69C0DAFF66C0E1FF67C055
:10128800E2FFDFCFE7FF00010001684B692B000197
:101298000001664B672B000100016407D8A06507B1
:1012A80000016429D8B46529D8B41200E2D7000136
:1012B800686F550E00010001696F00016851000157
:1012C800000E00010001616F0001690E0001606FEE
:1012D800000E00010001636F010E0001626FBBEC9C
:1012E80005F0000E00010001616F020E0001606F41
:1012F80009EC0AF012006BC06DF06AC06EF069C0AC
:101308006FF068C070F000016C6F0A0E00010001F8
:10131800716F00016C510001000E00010001616F46
:1013280000016D0E0001606F000E00010001636F87
:10133800050E0001626F56EC05F01200F2AC08D001
:10134800000E00010001636F000E0001626F1200C1
:1013580031EC0BF000010001615100016011D8B4BB
:1013680008D0000E00010001636F000E0001626FDB
:101378001200000E00010001636F010E0001626F90
:101388001200010E00010001616F900E0001606FF4
:10139800D8C062F0D9C063F0D4EC03F0000160C09B
:1013A80069F0000161C06AF0898269C060F06AC0B2
:1013B80061F0140E00010001636F980E0001626F66
:1013C800B3EC08F01200A2EC09F00001000163512F
:1013D80000016211D8A411D031EC0BF0000100011A
:1013E800615100016011D8A408D0000E000100016D
:1013F800656F010E0001646F1200000E000100010C
:10140800656F000E0001646F1200000120EE0CF001
:101418000001DE51D9260001DF51DA22D92ADD5038
:10142800FF0AFF0ED8B4DF18D8A41200000120EE7E
:101438000CF00001DE51D9260001DF51DA2200014B
:1014480060C0DEFF000161C0DDFFA38A120001EE6B
:1014580000F0D80EEE6AE806FDE100EED0F00A0EC4
:10146800EE6AE806FDE17C0EF66E160EF76E000ECB
:10147800F86E00EEE0F010EE06F00900F5CFEEFF92
:10148800E550E150FAE1000EF86E0001D3EF01F0EB
:10149800E4C068F0E5C069F00001000E0001000139
:1014A800616F0001680E0001606F000E000100010D
:1014B800636F010E0001626FBBEC05F0000E0001C6
:1014C8000001616F060E0001606F09EC0AF012005E
:1014D80014C01AF015C01BF012C018F013C019F090
:1014E8000ED01AC0D9FF1BC0DAFF18C0E1FF19C01F
:1014F800E2FFDFCFE7FF1A4A1B2A184A192A160605
:10150800D8A017061628D8B41728D8B41200E9D7D7
:10151800000120EE35F000016051D926000161512B
:10152800DA22DF500001626F000162510D0DF350A5
:10153800000100016025D96EF4500001000161210D
:10154800DA6EDF5012000101010E000100016B6F1D
:101558000101A20E00016A6F78C06CF079C06DF0CD
:101568007AC06EF07BC06FF07CC070F03EEC03F088
:101578001200010E00010001656F900E0001646FFA
:10158800899264C060F065C061F0000E000100013E
:10159800636F000E0001626FB3EC08F012000101E6
:1015A800010E000100016B6F01016C0E00016A6FF2
:1015B80078C06CF079C06DF07AC06EF07BC06FF0C7
:1015C8007CC070F03EEC03F012000101010E1D6EAC
:1015D8000101A20E1C6E28C01EF029C01FF02AC0EF
:1015E80020F02BC021F075EC06F01200AECF2EF0E3
:1015F8002C6E010E286E2C502D6E320E296E2D5039
:10160800000E2B6E2E0E2A6E0BEC0BF01200010151
:10161800010E1D6E01016C0E1C6E28C01EF029C043
:101628001FF02AC020F02BC021F075EC06F0120044
:1016380060C0DAF061C0DBF09D80300ECD123F0E45
:10164800CD16000ECC6E1200FA0E00F0E82EFDD773
:1016580000010001602FF8D71200000EF2AE010E53
:1016680000010001606F0001616B12009D8AAECF1E
:1016780062F01200FFFFFFFF4200F28EF28C1200B0
:041688009D9A120015
:020000040020DA
:08000000FFFFFFFFFFFFFFFF00
:020000040030CA
:0E000000FF331F3CFFBD85FF0FC00FE00F4018
:00000001FF
